{
    "contractName": "EcommerceStore",
    "abi": [
        {
            "constant": false,
            "inputs": [
                {
                    "name": "_name",
                    "type": "string"
                },
                {
                    "name": "_category",
                    "type": "string"
                },
                {
                    "name": "_imageLink",
                    "type": "string"
                },
                {
                    "name": "_descLink",
                    "type": "string"
                },
                {
                    "name": "_startTime",
                    "type": "uint256"
                },
                {
                    "name": "_price",
                    "type": "uint256"
                },
                {
                    "name": "_productCondition",
                    "type": "uint256"
                }
            ],
            "name": "addProductToStore",
            "outputs": [],
            "payable": false,
            "stateMutability": "nonpayable",
            "type": "function"
        },
        {
            "constant": true,
            "inputs": [],
            "name": "registFee",
            "outputs": [
                {
                    "name": "",
                    "type": "uint256"
                }
            ],
            "payable": false,
            "stateMutability": "view",
            "type": "function"
        },
        {
            "constant": false,
            "inputs": [
                {
                    "name": "_productId",
                    "type": "uint256"
                }
            ],
            "name": "reportArbiter",
            "outputs": [],
            "payable": false,
            "stateMutability": "nonpayable",
            "type": "function"
        },
        {
            "constant": false,
            "inputs": [],
            "name": "arbiterWithdraw",
            "outputs": [],
            "payable": true,
            "stateMutability": "payable",
            "type": "function"
        },
        {
            "constant": true,
            "inputs": [
                {
                    "name": "",
                    "type": "uint256"
                }
            ],
            "name": "arbiters",
            "outputs": [
                {
                    "name": "_address",
                    "type": "address"
                },
                {
                    "name": "_state",
                    "type": "uint256"
                }
            ],
            "payable": false,
            "stateMutability": "view",
            "type": "function"
        },
        {
            "constant": true,
            "inputs": [],
            "name": "numberOfArbiter",
            "outputs": [
                {
                    "name": "",
                    "type": "uint256"
                }
            ],
            "payable": false,
            "stateMutability": "view",
            "type": "function"
        },
        {
            "constant": true,
            "inputs": [
                {
                    "name": "",
                    "type": "address"
                }
            ],
            "name": "arbitersId",
            "outputs": [
                {
                    "name": "",
                    "type": "uint256"
                }
            ],
            "payable": false,
            "stateMutability": "view",
            "type": "function"
        },
        {
            "constant": true,
            "inputs": [
                {
                    "name": "_productId",
                    "type": "uint256"
                }
            ],
            "name": "escrowInfo",
            "outputs": [
                {
                    "name": "",
                    "type": "address"
                },
                {
                    "name": "",
                    "type": "address"
                },
                {
                    "name": "",
                    "type": "address"
                },
                {
                    "name": "",
                    "type": "bool"
                },
                {
                    "name": "",
                    "type": "uint256"
                },
                {
                    "name": "",
                    "type": "uint256"
                }
            ],
            "payable": false,
            "stateMutability": "view",
            "type": "function"
        },
        {
            "constant": false,
            "inputs": [
                {
                    "name": "_productId",
                    "type": "uint256"
                }
            ],
            "name": "resetBuyer",
            "outputs": [],
            "payable": false,
            "stateMutability": "nonpayable",
            "type": "function"
        },
        {
            "constant": false,
            "inputs": [
                {
                    "name": "_arbiter",
                    "type": "address"
                },
                {
                    "name": "_productId",
                    "type": "uint256"
                }
            ],
            "name": "requestBanArbiter",
            "outputs": [],
            "payable": false,
            "stateMutability": "nonpayable",
            "type": "function"
        },
        {
            "constant": false,
            "inputs": [
                {
                    "name": "_productId",
                    "type": "uint256"
                }
            ],
            "name": "releaseAmountToSeller",
            "outputs": [],
            "payable": false,
            "stateMutability": "nonpayable",
            "type": "function"
        },
        {
            "constant": true,
            "inputs": [
                {
                    "name": "_min",
                    "type": "uint256"
                },
                {
                    "name": "_max",
                    "type": "uint256"
                }
            ],
            "name": "random",
            "outputs": [
                {
                    "name": "",
                    "type": "uint256"
                }
            ],
            "payable": false,
            "stateMutability": "view",
            "type": "function"
        },
        {
            "constant": true,
            "inputs": [
                {
                    "name": "_productId",
                    "type": "uint256"
                }
            ],
            "name": "getProduct",
            "outputs": [
                {
                    "name": "",
                    "type": "uint256"
                },
                {
                    "name": "",
                    "type": "string"
                },
                {
                    "name": "",
                    "type": "string"
                },
                {
                    "name": "",
                    "type": "string"
                },
                {
                    "name": "",
                    "type": "string"
                },
                {
                    "name": "",
                    "type": "uint256"
                },
                {
                    "name": "",
                    "type": "uint256"
                },
                {
                    "name": "",
                    "type": "uint8"
                },
                {
                    "name": "",
                    "type": "address"
                }
            ],
            "payable": false,
            "stateMutability": "view",
            "type": "function"
        },
        {
            "constant": true,
            "inputs": [],
            "name": "productIndex",
            "outputs": [
                {
                    "name": "",
                    "type": "uint256"
                }
            ],
            "payable": false,
            "stateMutability": "view",
            "type": "function"
        },
        {
            "constant": false,
            "inputs": [
                {
                    "name": "_productId",
                    "type": "uint256"
                }
            ],
            "name": "refundAmountToBuyer",
            "outputs": [],
            "payable": false,
            "stateMutability": "nonpayable",
            "type": "function"
        },
        {
            "constant": false,
            "inputs": [
                {
                    "name": "_productId",
                    "type": "uint256"
                }
            ],
            "name": "buy",
            "outputs": [],
            "payable": true,
            "stateMutability": "payable",
            "type": "function"
        },
        {
            "constant": false,
            "inputs": [],
            "name": "arbiterRegistration",
            "outputs": [],
            "payable": true,
            "stateMutability": "payable",
            "type": "function"
        },
        {
            "inputs": [
                {
                    "name": "_arbiter",
                    "type": "address"
                }
            ],
            "payable": false,
            "stateMutability": "nonpayable",
            "type": "constructor"
        },
        {
            "anonymous": false,
            "inputs": [
                {
                    "indexed": false,
                    "name": "_productId",
                    "type": "uint256"
                },
                {
                    "indexed": false,
                    "name": "name",
                    "type": "string"
                },
                {
                    "indexed": false,
                    "name": "category",
                    "type": "string"
                },
                {
                    "indexed": false,
                    "name": "imageLink",
                    "type": "string"
                },
                {
                    "indexed": false,
                    "name": "descLink",
                    "type": "string"
                },
                {
                    "indexed": false,
                    "name": "startTime",
                    "type": "uint256"
                },
                {
                    "indexed": false,
                    "name": "price",
                    "type": "uint256"
                },
                {
                    "indexed": false,
                    "name": "condition",
                    "type": "uint8"
                },
                {
                    "indexed": false,
                    "name": "buyer",
                    "type": "address"
                }
            ],
            "name": "NewProduct",
            "type": "event"
        },
        {
            "anonymous": false,
            "inputs": [
                {
                    "indexed": false,
                    "name": "_productId",
                    "type": "uint256"
                },
                {
                    "indexed": false,
                    "name": "name",
                    "type": "string"
                },
                {
                    "indexed": false,
                    "name": "category",
                    "type": "string"
                },
                {
                    "indexed": false,
                    "name": "imageLink",
                    "type": "string"
                },
                {
                    "indexed": false,
                    "name": "descLink",
                    "type": "string"
                },
                {
                    "indexed": false,
                    "name": "startTime",
                    "type": "uint256"
                },
                {
                    "indexed": false,
                    "name": "price",
                    "type": "uint256"
                },
                {
                    "indexed": false,
                    "name": "condition",
                    "type": "uint8"
                },
                {
                    "indexed": false,
                    "name": "buyer",
                    "type": "address"
                }
            ],
            "name": "BuyProduct",
            "type": "event"
        },
        {
            "anonymous": false,
            "inputs": [
                {
                    "indexed": false,
                    "name": "_productId",
                    "type": "uint256"
                },
                {
                    "indexed": false,
                    "name": "_oldBuyer",
                    "type": "address"
                },
                {
                    "indexed": false,
                    "name": "_currentBuyer",
                    "type": "address"
                }
            ],
            "name": "ResetBuyer",
            "type": "event"
        },
        {
            "anonymous": false,
            "inputs": [
                {
                    "indexed": false,
                    "name": "_arbiter",
                    "type": "address"
                },
                {
                    "indexed": false,
                    "name": "_value",
                    "type": "uint256"
                },
                {
                    "indexed": false,
                    "name": "_arbiterId",
                    "type": "uint256"
                }
            ],
            "name": "ArbiterRegistration",
            "type": "event"
        },
        {
            "anonymous": false,
            "inputs": [
                {
                    "indexed": false,
                    "name": "_arbiter",
                    "type": "address"
                },
                {
                    "indexed": false,
                    "name": "_value",
                    "type": "uint256"
                },
                {
                    "indexed": false,
                    "name": "_currentstate",
                    "type": "uint256"
                }
            ],
            "name": "ArbiterWithdraw",
            "type": "event"
        },
        {
            "anonymous": false,
            "inputs": [
                {
                    "indexed": false,
                    "name": "_arbiter",
                    "type": "address"
                }
            ],
            "name": "ArbiterBanned",
            "type": "event"
        }
    ],
    "bytecode": "6080604052674563918244f4000060075534801561001c57600080fd5b50604051602080620031cd8339810180604052602081101561003d57600080fd5b5051600080556001805561004f6100ae565b50604080518082018252600160a060020a0392831680825260016020808401828152825460009081526002835286812095518654600160a060020a031916981697909717855551938201939093555490845260039091529120556100c5565b604080518082019091526000808252602082015290565b6130f880620000d56000396000f3fe60806040526004361061011b576000357c01000000000000000000000000000000000000000000000000000000009004806392ade45e116100b2578063b9db15b411610081578063b9db15b41461058c578063c897d5a6146107a3578063cc352db7146107b8578063d96a094a146107e2578063e80aa118146107ff5761011b565b806392ade45e146104cf5780639733b87b146104f95780639a3a7c6914610532578063a9dd12251461055c5761011b565b80635a7a6afd116100ee5780635a7a6afd146103ce57806360e329651461041b5780637d3ebc761461043057806383560525146104635761011b565b8063170dd16014610120578063368c0891146103755780633a6b2a6e1461039c5780633ea42e9f146103c6575b600080fd5b34801561012c57600080fd5b50610373600480360360e081101561014357600080fd5b81019060208101813564010000000081111561015e57600080fd5b82018360208201111561017057600080fd5b8035906020019184600183028401116401000000008311171561019257600080fd5b91908080601f01602080910402602001604051908101604052809392919081815260200183838082843760009201919091525092959493602081019350359150506401000000008111156101e557600080fd5b8201836020820111156101f757600080fd5b8035906020019184600183028401116401000000008311171561021957600080fd5b91908080601f016020809104026020016040519081016040528093929190818152602001838380828437600092019190915250929594936020810193503591505064010000000081111561026c57600080fd5b82018360208201111561027e57600080fd5b803590602001918460018302840111640100000000831117156102a057600080fd5b91908080601f01602080910402602001604051908101604052809392919081815260200183838082843760009201919091525092959493602081019350359150506401000000008111156102f357600080fd5b82018360208201111561030557600080fd5b8035906020019184600183028401116401000000008311171561032757600080fd5b91908080601f0160208091040260200160405190810160405280939291908181526020018383808284376000920191909152509295505082359350505060208101359060400135610807565b005b34801561038157600080fd5b5061038a610bde565b60408051918252519081900360200190f35b3480156103a857600080fd5b50610373600480360360208110156103bf57600080fd5b5035610be4565b610373610c6a565b3480156103da57600080fd5b506103f8600480360360208110156103f157600080fd5b5035610de9565b60408051600160a060020a03909316835260208301919091528051918290030190f35b34801561042757600080fd5b5061038a610e0e565b34801561043c57600080fd5b5061038a6004803603602081101561045357600080fd5b5035600160a060020a0316610e14565b34801561046f57600080fd5b5061048d6004803603602081101561048657600080fd5b5035610e26565b60408051600160a060020a039788168152958716602087015293909516848401529015156060840152608083015260a082019290925290519081900360c00190f35b3480156104db57600080fd5b50610373600480360360208110156104f257600080fd5b5035610ef2565b34801561050557600080fd5b506103736004803603604081101561051c57600080fd5b50600160a060020a03813516906020013561133c565b34801561053e57600080fd5b506103736004803603602081101561055557600080fd5b5035611821565b34801561056857600080fd5b5061038a6004803603604081101561057f57600080fd5b508035906020013561188c565b34801561059857600080fd5b506105b6600480360360208110156105af57600080fd5b50356118e3565b604051808a8152602001806020018060200180602001806020018981526020018881526020018760018111156105e857fe5b60ff16815260200186600160a060020a0316600160a060020a0316815260200185810385528d818151815260200191508051906020019080838360005b8381101561063d578181015183820152602001610625565b50505050905090810190601f16801561066a5780820380516001836020036101000a031916815260200191505b5085810384528c5181528c516020918201918e019080838360005b8381101561069d578181015183820152602001610685565b50505050905090810190601f1680156106ca5780820380516001836020036101000a031916815260200191505b5085810383528b5181528b516020918201918d019080838360005b838110156106fd5781810151838201526020016106e5565b50505050905090810190601f16801561072a5780820380516001836020036101000a031916815260200191505b5085810382528a5181528a516020918201918c019080838360005b8381101561075d578181015183820152602001610745565b50505050905090810190601f16801561078a5780820380516001836020036101000a031916815260200191505b509d505050505050505050505050505060405180910390f35b3480156107af57600080fd5b5061038a611c4d565b3480156107c457600080fd5b50610373600480360360208110156107db57600080fd5b5035611c53565b610373600480360360208110156107f857600080fd5b5035611cbe565b610373612411565b600080546001019055610818612588565b61012060405190810160405280600054815260200189815260200188815260200187815260200186815260200185815260200184815260200183600181111561085d57fe5b600181111561086857fe5b815260006020918201819052338152600482526040808220825483528352902082518155828201518051939450849391926108ab926001850192909101906125e0565b50604082015180516108c79160028401916020909101906125e0565b50606082015180516108e39160038401916020909101906125e0565b50608082015180516108ff9160048401916020909101906125e0565b5060a0820151600582015560c0820151600682015560e082015160078201805460ff19166001838181111561093057fe5b021790555061010091820151600791909101805474ffffffffffffffffffffffffffffffffffffffff001916600160a060020a0390921690920217905560008054815260056020908152604080832080543373ffffffffffffffffffffffffffffffffffffffff1991821617909155835484526006909252822080549091169055547f5dce1d76fba35536abf694402005e3bd56725b57ca93c6679fce7b24e5dd2e27908989898989898960018111156109e657fe5b6000604051808a815260200180602001806020018060200180602001898152602001888152602001876001811115610a1a57fe5b60ff16815260200186600160a060020a0316600160a060020a0316815260200185810385528d818151815260200191508051906020019080838360005b83811015610a6f578181015183820152602001610a57565b50505050905090810190601f168015610a9c5780820380516001836020036101000a031916815260200191505b5085810384528c5181528c516020918201918e019080838360005b83811015610acf578181015183820152602001610ab7565b50505050905090810190601f168015610afc5780820380516001836020036101000a031916815260200191505b5085810383528b5181528b516020918201918d019080838360005b83811015610b2f578181015183820152602001610b17565b50505050905090810190601f168015610b5c5780820380516001836020036101000a031916815260200191505b5085810382528a5181528a516020918201918c019080838360005b83811015610b8f578181015183820152602001610b77565b50505050905090810190601f168015610bbc5780820380516001836020036101000a031916815260200191505b509d505050505050505050505050505060405180910390a15050505050505050565b60075481565b6000818152600660205260408082205481517f184051ef0000000000000000000000000000000000000000000000000000000081523360048201529151600160a060020a039091169263184051ef926024808201939182900301818387803b158015610c4f57600080fd5b505af1158015610c63573d6000803e3d6000fd5b5050505050565b336000908152600360205260409020541515610cd0576040805160e560020a62461bcd02815260206004820152601160248201527f556e657869737465642061726269746572000000000000000000000000000000604482015290519081900360640190fd5b3360009081526003602090815260408083205483526002909152902060019081015414610d47576040805160e560020a62461bcd02815260206004820152600e60248201527f42616e6e65642061726269746572000000000000000000000000000000000000604482015290519081900360640190fd5b600754604051339180156108fc02916000818181858888f19350505050158015610d75573d6000803e3d6000fd5b5033600081815260036020908152604080832080548452600280845282852060019081019190915560075491548552938290209093015481519485529184019290925282820152517f30b7bc745cd3993945f7db7f5b9f836ed0daa53a545b2333859c932d9b45e79b9181900360600190a1565b60026020526000908152604090208054600190910154600160a060020a039091169082565b60015481565b60036020526000908152604090205481565b6000818152600660205260408082205481517ff3d25904000000000000000000000000000000000000000000000000000000008152915183928392839283928392600160a060020a03169163f3d259049160048082019260c092909190829003018186803b158015610e9757600080fd5b505afa158015610eab573d6000803e3d6000fd5b505050506040513d60c0811015610ec157600080fd5b508051602082015160408301516060840151608085015160a090950151939c929b5090995097509195509350915050565b600081815260066020526040902054600160a060020a03163314610f1557600080fd5b610f1d612588565b33600090815260046020908152604080832085845282529182902082516101208101845281548152600180830180548651600293821615610100026000190190911692909204601f8101869004860283018601909652858252919492938581019391929190830182828015610fd35780601f10610fa857610100808354040283529160200191610fd3565b820191906000526020600020905b815481529060010190602001808311610fb657829003601f168201915b5050509183525050600282810180546040805160206001841615610100026000190190931694909404601f810183900483028501830190915280845293810193908301828280156110655780601f1061103a57610100808354040283529160200191611065565b820191906000526020600020905b81548152906001019060200180831161104857829003601f168201915b505050918352505060038201805460408051602060026001851615610100026000190190941693909304601f81018490048402820184019092528181529382019392918301828280156110f95780601f106110ce576101008083540402835291602001916110f9565b820191906000526020600020905b8154815290600101906020018083116110dc57829003601f168201915b505050918352505060048201805460408051602060026001851615610100026000190190941693909304601f810184900484028201840190925281815293820193929183018282801561118d5780601f106111625761010080835404028352916020019161118d565b820191906000526020600020905b81548152906001019060200180831161117057829003601f168201915b50505091835250506005820154602082015260068201546040820152600782015460609091019060ff1660018111156111c257fe5b60018111156111cd57fe5b815260079190910154600160a060020a0361010091829004166020928301528201805160009182905233825260048352604080832087845284529091208351815583830151805194955091938593919261122e9260018501929101906125e0565b506040820151805161124a9160028401916020909101906125e0565b50606082015180516112669160038401916020909101906125e0565b50608082015180516112829160048401916020909101906125e0565b5060a0820151600582015560c0820151600682015560e082015160078201805460ff1916600183818111156112b357fe5b02179055506101009182015160079091018054600160a060020a03928316840274ffffffffffffffffffffffffffffffffffffffff001990911617905590830151604080518681528484166020820152919092168183015290517f6baa65a699535a1da63ac3cde361b59ea3e9b7e8456e25cc30173270ed8236cc9181900360600190a1505050565b600081815260066020526040902054600160a060020a0316331461135f57600080fd5b61136761265e565b50600160a060020a0380831660009081526003602090815260408083205480845260028084528285208351808501855281548089168252818701848152948852928652805190971673ffffffffffffffffffffffffffffffffffffffff1992831617815591516001909201919091558584526006909252909120805490911690556113f0612588565b600083815260056020908152604080832054600160a060020a031683526004825280832086845282529182902082516101208101845281548152600180830180548651600261010094831615949094026000190190911692909204601f81018690048602830186019096528582529194929385810193919291908301828280156114bb5780601f10611490576101008083540402835291602001916114bb565b820191906000526020600020905b81548152906001019060200180831161149e57829003601f168201915b5050509183525050600282810180546040805160206001841615610100026000190190931694909404601f8101839004830285018301909152808452938101939083018282801561154d5780601f106115225761010080835404028352916020019161154d565b820191906000526020600020905b81548152906001019060200180831161153057829003601f168201915b505050918352505060038201805460408051602060026001851615610100026000190190941693909304601f81018490048402820184019092528181529382019392918301828280156115e15780601f106115b6576101008083540402835291602001916115e1565b820191906000526020600020905b8154815290600101906020018083116115c457829003601f168201915b505050918352505060048201805460408051602060026001851615610100026000190190941693909304601f81018490048402820184019092528181529382019392918301828280156116755780601f1061164a57610100808354040283529160200191611675565b820191906000526020600020905b81548152906001019060200180831161165857829003601f168201915b50505091835250506005820154602082015260068201546040820152600782015460609091019060ff1660018111156116aa57fe5b60018111156116b557fe5b815260079190910154600160a060020a03610100918290048116602093840152600091840182905286825260058352604080832054909116825260048352808220878352835290208251815582820151805193945084939192611720926001850192909101906125e0565b506040820151805161173c9160028401916020909101906125e0565b50606082015180516117589160038401916020909101906125e0565b50608082015180516117749160048401916020909101906125e0565b5060a0820151600582015560c0820151600682015560e082015160078201805460ff1916600183818111156117a557fe5b02179055506101009182015160079091018054600160a060020a0392831690930274ffffffffffffffffffffffffffffffffffffffff001990931692909217909155604080519186168252517f1f4857d39c1b318888bd94cd6f8b5aca5e1ab7c63a3b4592e98a62aab04a74709181900360200190a150505050565b6000818152600660205260408082205481517f58aad10b0000000000000000000000000000000000000000000000000000000081523360048201529151600160a060020a03909116926358aad10b926024808201939182900301818387803b158015610c4f57600080fd5b60408051426020808301919091526c0100000000000000000000000033028284015282516034818403018152605490920190925280519101206000908190848403908115156118d757fe5b06840191505092915050565b60006060806060806000806000806118f9612588565b60008b815260056020908152604080832054600160a060020a03168352600482528083208e845282529182902082516101208101845281548152600180830180548651600261010094831615949094026000190190911692909204601f81018690048602830186019096528582529194929385810193919291908301828280156119c45780601f10611999576101008083540402835291602001916119c4565b820191906000526020600020905b8154815290600101906020018083116119a757829003601f168201915b5050509183525050600282810180546040805160206001841615610100026000190190931694909404601f81018390048302850183019091528084529381019390830182828015611a565780601f10611a2b57610100808354040283529160200191611a56565b820191906000526020600020905b815481529060010190602001808311611a3957829003601f168201915b505050918352505060038201805460408051602060026001851615610100026000190190941693909304601f8101849004840282018401909252818152938201939291830182828015611aea5780601f10611abf57610100808354040283529160200191611aea565b820191906000526020600020905b815481529060010190602001808311611acd57829003601f168201915b505050918352505060048201805460408051602060026001851615610100026000190190941693909304601f8101849004840282018401909252818152938201939291830182828015611b7e5780601f10611b5357610100808354040283529160200191611b7e565b820191906000526020600020905b815481529060010190602001808311611b6157829003601f168201915b50505091835250506005820154602082015260068201546040820152600782015460609091019060ff166001811115611bb357fe5b6001811115611bbe57fe5b81526020016007820160019054906101000a9004600160a060020a0316600160a060020a0316600160a060020a0316815250509050806000015181602001518260400151836060015184608001518560a001518660c001518760e00151886101000151879750869650859550849450995099509950995099509950995099509950509193959799909294969850565b60005481565b6000818152600660205260408082205481517fa97d1b100000000000000000000000000000000000000000000000000000000081523360048201529151600160a060020a039091169263a97d1b10926024808201939182900301818387803b158015610c4f57600080fd5b611cc6612588565b600082815260056020908152604080832054600160a060020a031683526004825280832085845282529182902082516101208101845281548152600180830180548651600261010094831615949094026000190190911692909204601f8101869004860283018601909652858252919492938581019391929190830182828015611d915780601f10611d6657610100808354040283529160200191611d91565b820191906000526020600020905b815481529060010190602001808311611d7457829003601f168201915b5050509183525050600282810180546040805160206001841615610100026000190190931694909404601f81018390048302850183019091528084529381019390830182828015611e235780601f10611df857610100808354040283529160200191611e23565b820191906000526020600020905b815481529060010190602001808311611e0657829003601f168201915b505050918352505060038201805460408051602060026001851615610100026000190190941693909304601f8101849004840282018401909252818152938201939291830182828015611eb75780601f10611e8c57610100808354040283529160200191611eb7565b820191906000526020600020905b815481529060010190602001808311611e9a57829003601f168201915b505050918352505060048201805460408051602060026001851615610100026000190190941693909304601f8101849004840282018401909252818152938201939291830182828015611f4b5780601f10611f2057610100808354040283529160200191611f4b565b820191906000526020600020905b815481529060010190602001808311611f2e57829003601f168201915b50505091835250506005820154602082015260068201546040820152600782015460609091019060ff166001811115611f8057fe5b6001811115611f8b57fe5b815260079190910154600160a060020a036101009182900481166020909301929092528201519192501615611fbf57600080fd5b60c0810151341015611fd057600080fd5b33610100820152600082815260056020908152604080832054600160a060020a031683526004825280832085845282529091208251815581830151805184936120209260018501929101906125e0565b506040820151805161203c9160028401916020909101906125e0565b50606082015180516120589160038401916020909101906125e0565b50608082015180516120749160048401916020909101906125e0565b5060a0820151600582015560c0820151600682015560e082015160078201805460ff1916600183818111156120a557fe5b021790555061010091820151600791909101805474ffffffffffffffffffffffffffffffffffffffff001916600160a060020a039283169093029290921790915581516000908152600660205260409020541615156121d657600061210d600060015461188c565b60008481526005602090815260408083205460019490940180845260029092528083205490519194509192349287923392600160a060020a0390811692169061215590612675565b938452600160a060020a0392831660208501529082166040808501919091529116606083015251908190036080019082f080158015612198573d6000803e3d6000fd5b506000868152600660205260409020805473ffffffffffffffffffffffffffffffffffffffff1916600160a060020a03929092169190911790555050505b7f0a99f12884a10408345f513fd14eccd5f8ee5b5e215e00a6fc22b8e52d15f2748282602001518360400151846060015185608001518660a001518760c001518860e00151896101000151604051808a81526020018060200180602001806020018060200189815260200188815260200187600181111561225357fe5b60ff16815260200186600160a060020a0316600160a060020a0316815260200185810385528d818151815260200191508051906020019080838360005b838110156122a8578181015183820152602001612290565b50505050905090810190601f1680156122d55780820380516001836020036101000a031916815260200191505b5085810384528c5181528c516020918201918e019080838360005b838110156123085781810151838201526020016122f0565b50505050905090810190601f1680156123355780820380516001836020036101000a031916815260200191505b5085810383528b5181528b516020918201918d019080838360005b83811015612368578181015183820152602001612350565b50505050905090810190601f1680156123955780820380516001836020036101000a031916815260200191505b5085810382528a5181528a516020918201918c019080838360005b838110156123c85781810151838201526020016123b0565b50505050905090810190601f1680156123f55780820380516001836020036101000a031916815260200191505b509d505050505050505050505050505060405180910390a15050565b3360009081526003602052604090205415612476576040805160e560020a62461bcd02815260206004820152600f60248201527f4578697374656420617262697465720000000000000000000000000000000000604482015290519081900360640190fd5b60075434146124cf576040805160e560020a62461bcd02815260206004820152600e60248201527f4e6f7420656e6f75676820666565000000000000000000000000000000000000604482015290519081900360640190fd5b6124d761265e565b506040805180820182523380825260016020808401828152825483018084556000858152600384528781208290559081526002835286902085518154600160a060020a039190911673ffffffffffffffffffffffffffffffffffffffff19909116178155905190830155600754915485519384529083019190915281840152915190917f38aa14fae9cdbd39ebbe7a1903feb1212ab6d1a426be2b285ff67b539288a59c919081900360600190a150565b6101206040519081016040528060008152602001606081526020016060815260200160608152602001606081526020016000815260200160008152602001600060018111156125d357fe5b8152600060209091015290565b828054600181600116156101000203166002900490600052602060002090601f016020900481019282601f1061262157805160ff191683800117855561264e565b8280016001018555821561264e579182015b8281111561264e578251825591602001919060010190612633565b5061265a929150612682565b5090565b604080518082019091526000808252602082015290565b610a2d806126a083390190565b61269c91905b8082111561265a5760008155600101612688565b9056fe60806040526064600c55604051608080610a2d8339810180604052608081101561002857600080fd5b5080516020820151604083015160609093015160008054600160a060020a03938416600160a060020a03199182161790915560018054958416958216959095179094556002805492909116919093161790915560098054346004553361010002600160a860020a0319909116179055600355610984806100a96000396000f3fe608060405234801561001057600080fd5b50600436106101045760003560e060020a90048063aa8c217c1161009b578063c5ce39111161006a578063c5ce391114610208578063d1a52e3014610210578063f3d259041461022c578063fe25e00a1461027657610104565b8063aa8c217c146101e8578063b8d08db2146101f0578063c3e9efdb146101f8578063c5ac0ded1461020057610104565b80637150d8ae116100d75780637150d8ae146101aa57806375b81c6d146101b25780638da5cb5b146101ba578063a97d1b10146101c257610104565b806308551a5314610109578063184051ef1461012d57806348a1d0ec1461015557806358aad10b14610184575b600080fd5b61011161027e565b60408051600160a060020a039092168252519081900360200190f35b6101536004803603602081101561014357600080fd5b5035600160a060020a031661028d565b005b6101726004803603602081101561016b57600080fd5b50356103e3565b60408051918252519081900360200190f35b6101536004803603602081101561019a57600080fd5b5035600160a060020a0316610415565b6101116105f4565b610172610603565b610111610609565b610153600480360360208110156101d857600080fd5b5035600160a060020a031661061d565b6101726107a2565b6101726107a8565b6101726107ae565b6101726107b4565b6101726107ba565b6102186107c0565b604080519115158252519081900360200190f35b6102346107c9565b60408051600160a060020a039788168152958716602087015293909516848401529015156060840152608083015260a082019290925290519081900360c00190f35b6101116107f9565b600154600160a060020a031681565b6009546101009004600160a060020a031633146102a957600080fd5b60095460ff1615156102ba57600080fd5b600054600160a060020a03828116911614806102e35750600154600160a060020a038281169116145b801561030d5750600160a060020a0381166000908152600b602052604090205460ff161515600114155b1561034257600160a060020a0381166000908152600b60205260409020805460ff19166001908117909155600a805490910190555b600a54600214156103e057600954600254600354604080517f9733b87b000000000000000000000000000000000000000000000000000000008152600160a060020a03938416600482015260248101929092525161010090930490911691639733b87b9160448082019260009290919082900301818387803b1580156103c757600080fd5b505af11580156103db573d6000803e3d6000fd5b505050505b50565b6000806103f283600c54610808565b9050600061040d61040583600c54610844565b612710610873565b949350505050565b60095460ff161561042557600080fd5b6009546101009004600160a060020a0316331461044157600080fd5b600054600160a060020a038281169116148061046a5750600154600160a060020a038281169116145b806104825750600254600160a060020a038281169116145b80156104ac5750600160a060020a03811660009081526005602052604090205460ff161515600114155b156104e157600160a060020a0381166000908152600560205260409020805460ff191660019081179091556007805490910190555b600754600214156103e057600030600160a060020a03166348a1d0ec6004546040518263ffffffff1660e060020a0281526004018082815260200191505060206040518083038186803b15801561053757600080fd5b505afa15801561054b573d6000803e3d6000fd5b505050506040513d602081101561056157600080fd5b5051600254604051919250600160a060020a03169082156108fc029083906000818181858888f1935050505015801561059e573d6000803e3d6000fd5b506004805482900390819055600154604051600160a060020a039091169180156108fc02916000818181858888f193505050501580156105e2573d6000803e3d6000fd5b50506009805460ff1916600117905550565b600054600160a060020a031681565b600a5481565b6009546101009004600160a060020a031681565b60095460ff161561062d57600080fd5b6009546101009004600160a060020a0316331461064957600080fd5b600054600160a060020a03828116911614806106725750600154600160a060020a038281169116145b8061068a5750600254600160a060020a038281169116145b80156106b45750600160a060020a03811660009081526006602052604090205460ff161515600114155b156106e957600160a060020a0381166000908152600660205260409020805460ff191660019081179091556008805490910190555b600854600214156103e05760008054600454604051600160a060020a039092169281156108fc029290818181858888f1935050505015801561072f573d6000803e3d6000fd5b506009805460ff1916905561074261088a565b600960019054906101000a9004600160a060020a0316600160a060020a03166392ade45e6003546040518263ffffffff1660e060020a02815260040180828152602001915050600060405180830381600087803b1580156103c757600080fd5b60045481565b60075481565b60085481565b600c5481565b60035481565b60095460ff1681565b600054600154600254600954600754600854600160a060020a0395861696948616959093169360ff909216929091565b600254600160a060020a031681565b6000806108158484610937565b90506000610824826001610946565b90506108396108338286610873565b85610844565b925050505b92915050565b60008215156108555750600061083e565b82820282848281151561086457fe5b041461086c57fe5b9392505050565b600080828481151561088157fe5b04949350505050565b60008054600160a060020a039081168252600560209081526040808420805460ff19908116909155600180548516865282862080548316905560028054861687528387208054841690558654861687526006909452828620805483169055548416855281852080548216905591549092168352908220805482169055815473ffffffffffffffffffffffffffffffffffffffff191682556007829055600891909155600980549091169055565b60008282018381101561086c57fe5b60008282111561095257fe5b5090039056fea165627a7a723058205268e481d617376fef1291e5a2971800b60be4cf0bcb9584dc00f3300b18a6be0029a165627a7a72305820e20643f845fdfa52425ab70363b81e42282fb86519d58af8bdbb4832a3ff0afb0029",
    "sourcePath": "/home/thanhthanh/Documents/study/ebay_ipfs_etherum/contracts/EcommerceStore.sol",
    "compiler": {
        "name": "solc",
        "version": "0.5.3+commit.10d17f24"
    },
    "functionHashes": {
        "addProductToStore(string,string,string,string,uint256,uint256,uint256)": "170dd160",
        "arbiterRegistration()": "e80aa118",
        "arbiterWithdraw()": "3ea42e9f",
        "arbiters(uint256)": "5a7a6afd",
        "arbitersId(address)": "7d3ebc76",
        "buy(uint256)": "d96a094a",
        "escrowInfo(uint256)": "83560525",
        "getProduct(uint256)": "b9db15b4",
        "numberOfArbiter()": "60e32965",
        "productIndex()": "c897d5a6",
        "random(uint256,uint256)": "a9dd1225",
        "refundAmountToBuyer(uint256)": "cc352db7",
        "registFee()": "368c0891",
        "releaseAmountToSeller(uint256)": "9a3a7c69",
        "reportArbiter(uint256)": "3a6b2a6e",
        "requestBanArbiter(address,uint256)": "9733b87b",
        "resetBuyer(uint256)": "92ade45e"
    },
    "gasEstimates": {
        "creation": {
            "codeDepositCost": "2507200",
            "executionCost": "108888",
            "totalCost": "2616088"
        },
        "external": {
            "addProductToStore(string,string,string,string,uint256,uint256,uint256)": "infinite",
            "arbiterRegistration()": "83606",
            "arbiterWithdraw()": "infinite",
            "arbiters(uint256)": "935",
            "arbitersId(address)": "653",
            "buy(uint256)": "infinite",
            "escrowInfo(uint256)": "infinite",
            "getProduct(uint256)": "infinite",
            "numberOfArbiter()": "448",
            "productIndex()": "447",
            "random(uint256,uint256)": "586",
            "refundAmountToBuyer(uint256)": "infinite",
            "registFee()": "449",
            "releaseAmountToSeller(uint256)": "infinite",
            "reportArbiter(uint256)": "infinite",
            "requestBanArbiter(address,uint256)": "infinite",
            "resetBuyer(uint256)": "infinite"
        }
    }
}